{
  "contractName": "Missmatch",
  "abi": [
    {
      "anonymous": false,
      "inputs": [
        {
          "indexed": false,
          "internalType": "bytes32",
          "name": "key",
          "type": "bytes32"
        },
        {
          "indexed": false,
          "internalType": "uint256",
          "name": "low",
          "type": "uint256"
        }
      ],
      "name": "request_proof_of_committed_step",
      "type": "event"
    },
    {
      "anonymous": false,
      "inputs": [
        {
          "indexed": false,
          "internalType": "bytes32",
          "name": "key",
          "type": "bytes32"
        },
        {
          "indexed": false,
          "internalType": "uint256",
          "name": "middle",
          "type": "uint256"
        }
      ],
      "name": "request_proof_of_middle",
      "type": "event"
    },
    {
      "stateMutability": "payable",
      "type": "fallback",
      "payable": true
    },
    {
      "inputs": [
        {
          "internalType": "bytes32",
          "name": "",
          "type": "bytes32"
        }
      ],
      "name": "state",
      "outputs": [
        {
          "internalType": "uint256",
          "name": "s",
          "type": "uint256"
        },
        {
          "internalType": "uint256",
          "name": "low",
          "type": "uint256"
        },
        {
          "internalType": "uint256",
          "name": "high",
          "type": "uint256"
        },
        {
          "internalType": "uint256",
          "name": "middle",
          "type": "uint256"
        },
        {
          "internalType": "uint256",
          "name": "deadline",
          "type": "uint256"
        },
        {
          "internalType": "uint8",
          "name": "alg_state",
          "type": "uint8"
        },
        {
          "internalType": "address",
          "name": "winner",
          "type": "address"
        },
        {
          "internalType": "bytes32",
          "name": "rc_hash_low",
          "type": "bytes32"
        },
        {
          "internalType": "bytes32",
          "name": "code_mt_root",
          "type": "bytes32"
        }
      ],
      "stateMutability": "view",
      "type": "function",
      "constant": true
    },
    {
      "inputs": [
        {
          "internalType": "uint256",
          "name": "_s",
          "type": "uint256"
        },
        {
          "internalType": "bytes32",
          "name": "_zi",
          "type": "bytes32"
        },
        {
          "internalType": "bytes32",
          "name": "_zj",
          "type": "bytes32"
        },
        {
          "internalType": "address",
          "name": "_ci_address",
          "type": "address"
        },
        {
          "internalType": "address",
          "name": "_cj_address",
          "type": "address"
        },
        {
          "internalType": "bytes32",
          "name": "_code_mt_root",
          "type": "bytes32"
        }
      ],
      "name": "start_committed_bs",
      "outputs": [
        {
          "internalType": "bool",
          "name": "",
          "type": "bool"
        }
      ],
      "stateMutability": "nonpayable",
      "type": "function"
    },
    {
      "inputs": [
        {
          "components": [
            {
              "internalType": "bytes32",
              "name": "root",
              "type": "bytes32"
            },
            {
              "internalType": "bytes32",
              "name": "leaf",
              "type": "bytes32"
            },
            {
              "internalType": "bytes32[]",
              "name": "arr",
              "type": "bytes32[]"
            },
            {
              "internalType": "bool[]",
              "name": "pos",
              "type": "bool[]"
            }
          ],
          "internalType": "struct proof",
          "name": "rc_proof",
          "type": "tuple"
        },
        {
          "internalType": "bytes32",
          "name": "key",
          "type": "bytes32"
        }
      ],
      "name": "send_rc_proof",
      "outputs": [
        {
          "internalType": "bool",
          "name": "",
          "type": "bool"
        }
      ],
      "stateMutability": "nonpayable",
      "type": "function"
    },
    {
      "inputs": [
        {
          "internalType": "int32",
          "name": "PC",
          "type": "int32"
        },
        {
          "internalType": "int32",
          "name": "OpCode",
          "type": "int32"
        },
        {
          "internalType": "int32[]",
          "name": "args",
          "type": "int32[]"
        },
        {
          "internalType": "int32[]",
          "name": "args_values",
          "type": "int32[]"
        },
        {
          "components": [
            {
              "internalType": "bytes32",
              "name": "root",
              "type": "bytes32"
            },
            {
              "internalType": "bytes32",
              "name": "leaf",
              "type": "bytes32"
            },
            {
              "internalType": "bytes32[]",
              "name": "arr",
              "type": "bytes32[]"
            },
            {
              "internalType": "bool[]",
              "name": "pos",
              "type": "bool[]"
            }
          ],
          "internalType": "struct proof[]",
          "name": "args_proof",
          "type": "tuple[]"
        },
        {
          "internalType": "bytes32",
          "name": "store_mt_root",
          "type": "bytes32"
        },
        {
          "internalType": "int32",
          "name": "nextOpCode",
          "type": "int32"
        },
        {
          "internalType": "int32[]",
          "name": "nextArgs",
          "type": "int32[]"
        },
        {
          "components": [
            {
              "internalType": "bytes32",
              "name": "root",
              "type": "bytes32"
            },
            {
              "internalType": "bytes32",
              "name": "leaf",
              "type": "bytes32"
            },
            {
              "internalType": "bytes32[]",
              "name": "arr",
              "type": "bytes32[]"
            },
            {
              "internalType": "bool[]",
              "name": "pos",
              "type": "bool[]"
            }
          ],
          "internalType": "struct proof",
          "name": "next_op_proof",
          "type": "tuple"
        },
        {
          "internalType": "bytes32",
          "name": "key",
          "type": "bytes32"
        }
      ],
      "name": "send_committed_step",
      "outputs": [
        {
          "internalType": "bool",
          "name": "",
          "type": "bool"
        }
      ],
      "stateMutability": "nonpayable",
      "type": "function"
    },
    {
      "inputs": [
        {
          "internalType": "bytes32",
          "name": "key",
          "type": "bytes32"
        }
      ],
      "name": "report",
      "outputs": [
        {
          "internalType": "bool",
          "name": "",
          "type": "bool"
        }
      ],
      "stateMutability": "nonpayable",
      "type": "function"
    }
  ],
  "bytecode": "0x608060405234801561001057600080fd5b5061266f806100206000396000f3fe60806040526004361061004e5760003560e01c806326030a341461005157806361d585da1461008e578063bb519d8c146100d3578063bb90fb4d14610110578063eae61b821461014d5761004f565b5b005b34801561005d57600080fd5b5061007860048036038101906100739190610de3565b61018a565b6040516100859190610e2b565b60405180910390f35b34801561009a57600080fd5b506100b560048036038101906100b09190610de3565b610361565b6040516100ca99989796959493929190610ecb565b60405180910390f35b3480156100df57600080fd5b506100fa60048036038101906100f5919061125a565b6103dc565b6040516101079190610e2b565b60405180910390f35b34801561011c57600080fd5b506101376004803603810190610132919061130e565b6106b3565b6040516101449190610e2b565b60405180910390f35b34801561015957600080fd5b50610174600480360381019061016f9190611578565b610994565b6040516101819190610e2b565b60405180910390f35b600080610195610bbf565b73__MissmatchLib__________________________63542ea2a76000808781526020019081526020016000206040518263ffffffff1660e01b81526004016101dd9190611ac9565b61024060405180830381865af41580156101fb573d6000803e3d6000fd5b505050506040513d601f19601f8201168201806040525081019061021f9190611e00565b80925081935050508115610357578060008086815260200190815260200160002060008201518160000155602082015181600101906002610261929190610c5e565b5060408201518160030155606082015181600401556080820151816005015560a0820151816006015560c0820151816007019060026102a1929190610c9e565b5060e08201518160090160006101000a81548160ff021916908360ff1602179055506101008201518160090160016101000a81548173ffffffffffffffffffffffffffffffffffffffff021916908373ffffffffffffffffffffffffffffffffffffffff16021790555061012082015181600a01906002610323929190610c5e565b5061014082015181600c015561016082015181600d01906002610347929190610c5e565b5061018082015181600f01559050505b8192505050919050565b60006020528060005260406000206000915090508060000154908060030154908060040154908060050154908060060154908060090160009054906101000a900460ff16908060090160019054906101000a900473ffffffffffffffffffffffffffffffffffffffff169080600c01549080600f0154905089565b60008060006103e9610bbf565b73__MissmatchLib__________________________635765b8aa87600080898152602001908152602001600020336040518463ffffffff1660e01b81526004016104359392919061200f565b61026060405180830381865af4158015610453573d6000803e3d6000fd5b505050506040513d601f19601f820116820180604052508101906104779190612074565b80935081945082955050505080600080878152602001908152602001600020600082015181600001556020820151816001019060026104b7929190610c5e565b5060408201518160030155606082015181600401556080820151816005015560a0820151816006015560c0820151816007019060026104f7929190610c9e565b5060e08201518160090160006101000a81548160ff021916908360ff1602179055506101008201518160090160016101000a81548173ffffffffffffffffffffffffffffffffffffffff021916908373ffffffffffffffffffffffffffffffffffffffff16021790555061012082015181600a01906002610579929190610c5e565b5061014082015181600c015561016082015181600d0190600261059d929190610c5e565b5061018082015181600f0155905050600060028111156105c0576105bf6120c8565b5b8260028111156105d3576105d26120c8565b5b0361062b577f96abd1089af333163850eefef640adeb5d143f184794bef2027ebb2b3868e5e4856000808881526020019081526020016000206005015460405161061e9291906120f7565b60405180910390a16106a7565b6001600281111561063f5761063e6120c8565b5b826002811115610652576106516120c8565b5b036106a6577fd77cef8f45e92e6ac0a6c7cb197776b7f2acb343947eb2f2bed073198a5aa558856000808881526020019081526020016000206003015460405161069d9291906120f7565b60405180910390a15b5b82935050505092915050565b6000808787878787876040516020016106d1969594939291906121aa565b604051602081830303815290604052805190602001209050600080600083815260200190815260200160002060090160009054906101000a900460ff1660ff161461072057600091505061098a565b846000808381526020019081526020016000206007016000600281106107495761074861221a565b5b0160006101000a81548173ffffffffffffffffffffffffffffffffffffffff021916908373ffffffffffffffffffffffffffffffffffffffff160217905550836000808381526020019081526020016000206007016001600281106107b1576107b061221a565b5b0160006101000a81548173ffffffffffffffffffffffffffffffffffffffff021916908373ffffffffffffffffffffffffffffffffffffffff1602179055508760008083815260200190815260200160002060000181905550866000808381526020019081526020016000206001016000600281106108335761083261221a565b5b0181905550856000808381526020019081526020016000206001016001600281106108615761086061221a565b5b018190555060008060008381526020019081526020016000206003018190555087600080838152602001908152602001600020600401819055506002886108a891906122a7565b60008083815260200190815260200160002060050181905550600563ffffffff16436108d491906122d8565b6000808381526020019081526020016000206006018190555082600080838152602001908152602001600020600f0181905550600160008083815260200190815260200160002060090160006101000a81548160ff021916908360ff1602179055507f96abd1089af333163850eefef640adeb5d143f184794bef2027ebb2b3868e5e4816000808481526020019081526020016000206005015460405161097c9291906120f7565b60405180910390a160019150505b9695505050505050565b6000806040518061012001604052808d60030b81526020018c60030b81526020018b81526020018a81526020018981526020018881526020018760030b815260200186815260200185815250905060006109ec610bbf565b73__MissmatchLib__________________________637d2d65fe84600080898152602001908152602001600020336040518463ffffffff1660e01b8152600401610a38939291906125f9565b61024060405180830381865af4158015610a56573d6000803e3d6000fd5b505050506040513d601f19601f82011682018060405250810190610a7a9190611e00565b80925081935050508060008087815260200190815260200160002060008201518160000155602082015181600101906002610ab6929190610c5e565b5060408201518160030155606082015181600401556080820151816005015560a0820151816006015560c082015181600701906002610af6929190610c9e565b5060e08201518160090160006101000a81548160ff021916908360ff1602179055506101008201518160090160016101000a81548173ffffffffffffffffffffffffffffffffffffffff021916908373ffffffffffffffffffffffffffffffffffffffff16021790555061012082015181600a01906002610b78929190610c5e565b5061014082015181600c015561016082015181600d01906002610b9c929190610c5e565b5061018082015181600f01559050508193505050509a9950505050505050505050565b604051806101a0016040528060008152602001610bda610d1b565b815260200160008152602001600081526020016000815260200160008152602001610c03610d3d565b8152602001600060ff168152602001600073ffffffffffffffffffffffffffffffffffffffff168152602001610c37610d1b565b815260200160008019168152602001610c4e610d1b565b8152602001600080191681525090565b8260028101928215610c8d579160200282015b82811115610c8c578251825591602001919060010190610c71565b5b509050610c9a9190610d5f565b5090565b8260028101928215610d0a579160200282015b82811115610d095782518260006101000a81548173ffffffffffffffffffffffffffffffffffffffff021916908373ffffffffffffffffffffffffffffffffffffffff16021790555091602001919060010190610cb1565b5b509050610d179190610d7c565b5090565b6040518060400160405280600290602082028036833780820191505090505090565b6040518060400160405280600290602082028036833780820191505090505090565b5b80821115610d78576000816000905550600101610d60565b5090565b5b80821115610d95576000816000905550600101610d7d565b5090565b6000604051905090565b600080fd5b600080fd5b6000819050919050565b610dc081610dad565b8114610dcb57600080fd5b50565b600081359050610ddd81610db7565b92915050565b600060208284031215610df957610df8610da3565b5b6000610e0784828501610dce565b91505092915050565b60008115159050919050565b610e2581610e10565b82525050565b6000602082019050610e406000830184610e1c565b92915050565b6000819050919050565b610e5981610e46565b82525050565b600060ff82169050919050565b610e7581610e5f565b82525050565b600073ffffffffffffffffffffffffffffffffffffffff82169050919050565b6000610ea682610e7b565b9050919050565b610eb681610e9b565b82525050565b610ec581610dad565b82525050565b600061012082019050610ee1600083018c610e50565b610eee602083018b610e50565b610efb604083018a610e50565b610f086060830189610e50565b610f156080830188610e50565b610f2260a0830187610e6c565b610f2f60c0830186610ead565b610f3c60e0830185610ebc565b610f4a610100830184610ebc565b9a9950505050505050505050565b600080fd5b6000601f19601f8301169050919050565b7f4e487b7100000000000000000000000000000000000000000000000000000000600052604160045260246000fd5b610fa682610f5d565b810181811067ffffffffffffffff82111715610fc557610fc4610f6e565b5b80604052505050565b6000610fd8610d99565b9050610fe48282610f9d565b919050565b600080fd5b600080fd5b600067ffffffffffffffff82111561100e5761100d610f6e565b5b602082029050602081019050919050565b600080fd5b600061103761103284610ff3565b610fce565b9050808382526020820190506020840283018581111561105a5761105961101f565b5b835b81811015611083578061106f8882610dce565b84526020840193505060208101905061105c565b5050509392505050565b600082601f8301126110a2576110a1610fee565b5b81356110b2848260208601611024565b91505092915050565b600067ffffffffffffffff8211156110d6576110d5610f6e565b5b602082029050602081019050919050565b6110f081610e10565b81146110fb57600080fd5b50565b60008135905061110d816110e7565b92915050565b6000611126611121846110bb565b610fce565b905080838252602082019050602084028301858111156111495761114861101f565b5b835b81811015611172578061115e88826110fe565b84526020840193505060208101905061114b565b5050509392505050565b600082601f83011261119157611190610fee565b5b81356111a1848260208601611113565b91505092915050565b6000608082840312156111c0576111bf610f58565b5b6111ca6080610fce565b905060006111da84828501610dce565b60008301525060206111ee84828501610dce565b602083015250604082013567ffffffffffffffff81111561121257611211610fe9565b5b61121e8482850161108d565b604083015250606082013567ffffffffffffffff81111561124257611241610fe9565b5b61124e8482850161117c565b60608301525092915050565b6000806040838503121561127157611270610da3565b5b600083013567ffffffffffffffff81111561128f5761128e610da8565b5b61129b858286016111aa565b92505060206112ac85828601610dce565b9150509250929050565b6112bf81610e46565b81146112ca57600080fd5b50565b6000813590506112dc816112b6565b92915050565b6112eb81610e9b565b81146112f657600080fd5b50565b600081359050611308816112e2565b92915050565b60008060008060008060c0878903121561132b5761132a610da3565b5b600061133989828a016112cd565b965050602061134a89828a01610dce565b955050604061135b89828a01610dce565b945050606061136c89828a016112f9565b935050608061137d89828a016112f9565b92505060a061138e89828a01610dce565b9150509295509295509295565b60008160030b9050919050565b6113b18161139b565b81146113bc57600080fd5b50565b6000813590506113ce816113a8565b92915050565b600067ffffffffffffffff8211156113ef576113ee610f6e565b5b602082029050602081019050919050565b600061141361140e846113d4565b610fce565b905080838252602082019050602084028301858111156114365761143561101f565b5b835b8181101561145f578061144b88826113bf565b845260208401935050602081019050611438565b5050509392505050565b600082601f83011261147e5761147d610fee565b5b813561148e848260208601611400565b91505092915050565b600067ffffffffffffffff8211156114b2576114b1610f6e565b5b602082029050602081019050919050565b60006114d66114d184611497565b610fce565b905080838252602082019050602084028301858111156114f9576114f861101f565b5b835b8181101561154057803567ffffffffffffffff81111561151e5761151d610fee565b5b80860161152b89826111aa565b855260208501945050506020810190506114fb565b5050509392505050565b600082601f83011261155f5761155e610fee565b5b813561156f8482602086016114c3565b91505092915050565b6000806000806000806000806000806101408b8d03121561159c5761159b610da3565b5b60006115aa8d828e016113bf565b9a505060206115bb8d828e016113bf565b99505060408b013567ffffffffffffffff8111156115dc576115db610da8565b5b6115e88d828e01611469565b98505060608b013567ffffffffffffffff81111561160957611608610da8565b5b6116158d828e01611469565b97505060808b013567ffffffffffffffff81111561163657611635610da8565b5b6116428d828e0161154a565b96505060a06116538d828e01610dce565b95505060c06116648d828e016113bf565b94505060e08b013567ffffffffffffffff81111561168557611684610da8565b5b6116918d828e01611469565b9350506101008b013567ffffffffffffffff8111156116b3576116b2610da8565b5b6116bf8d828e016111aa565b9250506101206116d18d828e01610dce565b9150509295989b9194979a5092959850565b60008160001c9050919050565b6000819050919050565b600061170d611708836116e3565b6116f0565b9050919050565b61171d81610e46565b82525050565b600060029050919050565b600081905092915050565b6000819050919050565b61174c81610dad565b82525050565b600061175e8383611743565b60208301905092915050565b6000819050919050565b6000611787611782836116e3565b61176a565b9050919050565b600061179a8254611774565b9050919050565b6000600182019050919050565b6117b781611723565b6117c1818461172e565b92506117cc82611739565b8060005b83811015611804576117e18261178e565b6117eb8782611752565b96506117f6836117a1565b9250506001810190506117d0565b505050505050565b600060029050919050565b600081905092915050565b6000819050919050565b61183581610e9b565b82525050565b6000611847838361182c565b60208301905092915050565b600073ffffffffffffffffffffffffffffffffffffffff82169050919050565b6000611886611881836116e3565b611853565b9050919050565b60006118998254611873565b9050919050565b6000600182019050919050565b6118b68161180c565b6118c08184611817565b92506118cb82611822565b8060005b83811015611903576118e08261188d565b6118ea878261183b565b96506118f5836118a0565b9250506001810190506118cf565b505050505050565b600060ff82169050919050565b600061192b611926836116e3565b61190b565b9050919050565b61193b81610e5f565b82525050565b60008160081c9050919050565b600061196161195c83611941565b611853565b9050919050565b6102208201600080830154905061197e816116fa565b61198b6000860182611714565b506001830161199d60208601826117ae565b50600383015490506119ae816116fa565b6119bb6060860182611714565b50600483015490506119cc816116fa565b6119d96080860182611714565b50600583015490506119ea816116fa565b6119f760a0860182611714565b5060068301549050611a08816116fa565b611a1560c0860182611714565b5060078301611a2760e08601826118ad565b5060098301549050611a3881611918565b611a46610120860182611932565b50611a508161194e565b611a5e61014086018261182c565b50600a8301611a716101608601826117ae565b50600c8301549050611a8281611774565b611a906101a0860182611743565b50600d8301611aa36101c08601826117ae565b50600f8301549050611ab481611774565b611ac2610200860182611743565b5050505050565b600061022082019050611adf6000830184611968565b92915050565b600081519050611af4816110e7565b92915050565b600081519050611b09816112b6565b92915050565b600067ffffffffffffffff821115611b2a57611b29610f6e565b5b602082029050919050565b600081519050611b4481610db7565b92915050565b6000611b5d611b5884611b0f565b610fce565b90508060208402830185811115611b7757611b7661101f565b5b835b81811015611ba05780611b8c8882611b35565b845260208401935050602081019050611b79565b5050509392505050565b600082601f830112611bbf57611bbe610fee565b5b6002611bcc848285611b4a565b91505092915050565b600067ffffffffffffffff821115611bf057611bef610f6e565b5b602082029050919050565b600081519050611c0a816112e2565b92915050565b6000611c23611c1e84611bd5565b610fce565b90508060208402830185811115611c3d57611c3c61101f565b5b835b81811015611c665780611c528882611bfb565b845260208401935050602081019050611c3f565b5050509392505050565b600082601f830112611c8557611c84610fee565b5b6002611c92848285611c10565b91505092915050565b611ca481610e5f565b8114611caf57600080fd5b50565b600081519050611cc181611c9b565b92915050565b60006102208284031215611cde57611cdd610f58565b5b611ce96101a0610fce565b90506000611cf984828501611afa565b6000830152506020611d0d84828501611baa565b6020830152506060611d2184828501611afa565b6040830152506080611d3584828501611afa565b60608301525060a0611d4984828501611afa565b60808301525060c0611d5d84828501611afa565b60a08301525060e0611d7184828501611c70565b60c083015250610120611d8684828501611cb2565b60e083015250610140611d9b84828501611bfb565b61010083015250610160611db184828501611baa565b610120830152506101a0611dc784828501611b35565b610140830152506101c0611ddd84828501611baa565b61016083015250610200611df384828501611b35565b6101808301525092915050565b6000806102408385031215611e1857611e17610da3565b5b6000611e2685828601611ae5565b9250506020611e3785828601611cc7565b9150509250929050565b600081519050919050565b600082825260208201905092915050565b6000819050602082019050919050565b6000602082019050919050565b6000611e8582611e41565b611e8f8185611e4c565b9350611e9a83611e5d565b8060005b83811015611ecb578151611eb28882611752565b9750611ebd83611e6d565b925050600181019050611e9e565b5085935050505092915050565b600081519050919050565b600082825260208201905092915050565b6000819050602082019050919050565b611f0d81610e10565b82525050565b6000611f1f8383611f04565b60208301905092915050565b6000602082019050919050565b6000611f4382611ed8565b611f4d8185611ee3565b9350611f5883611ef4565b8060005b83811015611f89578151611f708882611f13565b9750611f7b83611f2b565b925050600181019050611f5c565b5085935050505092915050565b6000608083016000830151611fae6000860182611743565b506020830151611fc16020860182611743565b5060408301518482036040860152611fd98282611e7a565b91505060608301518482036060860152611ff38282611f38565b9150508091505092915050565b61200981610e9b565b82525050565b600061026082019050818103600083015261202a8186611f96565b90506120396020830185611968565b612047610240830184612000565b949350505050565b6003811061205c57600080fd5b50565b60008151905061206e8161204f565b92915050565b6000806000610260848603121561208e5761208d610da3565b5b600061209c86828701611ae5565b93505060206120ad8682870161205f565b92505060406120be86828701611cc7565b9150509250925092565b7f4e487b7100000000000000000000000000000000000000000000000000000000600052602160045260246000fd5b600060408201905061210c6000830185610ebc565b6121196020830184610e50565b9392505050565b6000819050919050565b61213b61213682610e46565b612120565b82525050565b6000819050919050565b61215c61215782610dad565b612141565b82525050565b60008160601b9050919050565b600061217a82612162565b9050919050565b600061218c8261216f565b9050919050565b6121a461219f82610e9b565b612181565b82525050565b60006121b6828961212a565b6020820191506121c6828861214b565b6020820191506121d6828761214b565b6020820191506121e68286612193565b6014820191506121f68285612193565b601482019150612206828461214b565b602082019150819050979650505050505050565b7f4e487b7100000000000000000000000000000000000000000000000000000000600052603260045260246000fd5b7f4e487b7100000000000000000000000000000000000000000000000000000000600052601260045260246000fd5b7f4e487b7100000000000000000000000000000000000000000000000000000000600052601160045260246000fd5b60006122b282610e46565b91506122bd83610e46565b9250826122cd576122cc612249565b5b828204905092915050565b60006122e382610e46565b91506122ee83610e46565b9250827fffffffffffffffffffffffffffffffffffffffffffffffffffffffffffffffff0382111561232357612322612278565b5b828201905092915050565b6123378161139b565b82525050565b600081519050919050565b600082825260208201905092915050565b6000819050602082019050919050565b6000612375838361232e565b60208301905092915050565b6000602082019050919050565b60006123998261233d565b6123a38185612348565b93506123ae83612359565b8060005b838110156123df5781516123c68882612369565b97506123d183612381565b9250506001810190506123b2565b5085935050505092915050565b600081519050919050565b600082825260208201905092915050565b6000819050602082019050919050565b60006080830160008301516124306000860182611743565b5060208301516124436020860182611743565b506040830151848203604086015261245b8282611e7a565b915050606083015184820360608601526124758282611f38565b9150508091505092915050565b600061248e8383612418565b905092915050565b6000602082019050919050565b60006124ae826123ec565b6124b881856123f7565b9350836020820285016124ca85612408565b8060005b8581101561250657848403895281516124e78582612482565b94506124f283612496565b925060208a019950506001810190506124ce565b50829750879550505050505092915050565b600061012083016000830151612531600086018261232e565b506020830151612544602086018261232e565b506040830151848203604086015261255c828261238e565b91505060608301518482036060860152612576828261238e565b9150506080830151848203608086015261259082826124a3565b91505060a08301516125a560a0860182611743565b5060c08301516125b860c086018261232e565b5060e083015184820360e08601526125d0828261238e565b9150506101008301518482036101008601526125ec8282612418565b9150508091505092915050565b60006102608201905081810360008301526126148186612518565b90506126236020830185611968565b612631610240830184612000565b94935050505056fea2646970667358221220b8f7b7ffe1d1f3a10f2157c4632ce4fadbefd562b93c94ddcd0d8c3987ae9f5864736f6c634300080f0033",
  "immutableReferences": {},
  "source": "pragma solidity ^0.8.7;\n\nstruct MissmatchInstance {\n    uint256 s;\n    bytes32[2] z;\n    uint256 low;\n    uint256 high;\n    uint256 middle;\n    uint256 deadline;\n    address[2] c_address;\n    uint8 alg_state; //0 not started, 1 binary search, 2 verify committed step, 3 finished\n    address winner; \n    bytes32[2] c_current_hash;\n    bytes32 rc_hash_low;\n    bytes32[2] rc_hash_high_c;\n    bytes32 code_mt_root;\n}\n\nstruct proof{\n    bytes32 root;\n    bytes32 leaf;\n    bytes32[] arr;\n    bool[] pos;\n}\n\nstruct committed_step_params{\n    int32 PC;\n    int32 OpCode;\n    int32[] args;\n    int32[] args_values;\n    proof[] args_proof;\n    bytes32 store_mt_root;\n    int32 nextOpCode;\n    int32[] nextArgs;\n    proof next_op_proof;    \n}\n\nenum req_type {MIDDLE, COMMITTED_STEP, NONE}\n\ncontract Missmatch {\n    mapping(bytes32 => MissmatchInstance) public state;\n\n    uint32 constant deadline_duration = 5;\n\n    event request_proof_of_middle(bytes32 key, uint256 middle);\n    event request_proof_of_committed_step(bytes32 key, uint256 low);\n\n    function start_committed_bs(\n        uint256 _s,\n        bytes32 _zi,\n        bytes32 _zj,\n        address _ci_address,\n        address _cj_address,\n        bytes32 _code_mt_root\n    ) public returns(bool) {\n        bytes32 key = keccak256(abi.encodePacked(_s, _zi, _zj, _ci_address, _cj_address, _code_mt_root));\n        if (state[key].alg_state != 0) {\n            return false;\n        }\n\n        state[key].c_address[0] = _ci_address;\n        state[key].c_address[1] = _cj_address;\n        state[key].s = _s;\n        state[key].z[0] = _zi;\n        state[key].z[1] = _zj;\n        state[key].low = 0;\n        state[key].high = _s;\n        state[key].middle = _s / 2;\n        state[key].deadline = block.number + deadline_duration;\n        state[key].code_mt_root = _code_mt_root;\n        state[key].alg_state = 1;\n\n        emit request_proof_of_middle(key, state[key].middle);\n        return true;\n    }\n\n    function send_rc_proof(\n        proof memory rc_proof,\n        bytes32 key\n    ) public returns(bool)\n    {\n        bool _res; \n        req_type _req; \n        MissmatchInstance memory _res_state;\n        (_res, _req, _res_state) = MissmatchLib.send_rc_proof(rc_proof, state[key], msg.sender);\n\n        state[key] = _res_state;\n        \n        if (_req == req_type.MIDDLE) {\n            emit request_proof_of_middle(key, state[key].middle);\n        }\n        else if (_req == req_type.COMMITTED_STEP){\n            emit request_proof_of_committed_step(key, state[key].low);\n        }\n\n        return _res;\n    }\n\n    function send_committed_step(\n        int32 PC,\n        int32 OpCode,\n        int32[] memory args,\n        int32[] memory args_values,\n        proof[] memory args_proof,\n        bytes32 store_mt_root,\n        int32 nextOpCode,\n        int32[] memory nextArgs,\n        proof memory next_op_proof,\n        bytes32 key\n    ) public returns(bool)\n    {\n        committed_step_params memory params = committed_step_params(PC, OpCode, args, args_values, args_proof, store_mt_root, nextOpCode, nextArgs, next_op_proof);\n        bool _res; \n        MissmatchInstance memory _res_state;\n        (_res, _res_state) = MissmatchLib.send_committed_step(params, state[key], msg.sender);\n\n        state[key] = _res_state;\n\n        return _res;\n    }\n\n    function report(bytes32 key) public returns(bool){\n        bool _res;\n        MissmatchInstance memory _res_state;\n\n        (_res, _res_state) = MissmatchLib.report(state[key]);\n\n        if(_res){\n            state[key] = _res_state;\n        }\n        \n        return _res;\n    }\n\n    fallback() external payable {\n        int n = 0;\n    }\n\n} \n\nlibrary MissmatchLib {\n\n    uint32 constant deadline_duration = 5;\n\n    function send_rc_proof(\n        proof memory rc_proof,\n        MissmatchInstance memory state,\n        address sender\n    ) public view returns(bool res, req_type req, MissmatchInstance memory res_state)\n    {\n        uint8 sender_idx;\n        uint8 other_idx;\n\n        if (sender == state.c_address[0]){\n            sender_idx = 0;\n            other_idx = 1;\n        }\n        else if(sender == state.c_address[1]){\n            sender_idx = 1;\n            other_idx = 0;\n        }\n        else {\n            return (false, req_type.NONE, state);\n        }\n\n        if (state.alg_state != 1){\n            return (false, req_type.NONE, state);\n        }\n        if (!verify_merkle(rc_proof)){\n            state.winner = state.c_address[other_idx];\n            return (false, req_type.NONE, state);\n        }\n\n        state.c_current_hash[sender_idx] = rc_proof.leaf;\n\n        if (state.c_current_hash[other_idx] == bytes32(0)){\n            return (true, req_type.NONE, state);\n        }\n\n        if(state.c_current_hash[0] == state.c_current_hash[1]){\n            state.low = state.middle;\n            state.rc_hash_low = state.c_current_hash[0];\n        }\n        else {\n            state.high = state.middle;\n            state.rc_hash_high_c[0] = state.c_current_hash[0];\n            state.rc_hash_high_c[1] = state.c_current_hash[1];\n        }\n\n        if(state.high == (state.low + 1)){\n            state.alg_state = 2;\n            //emit request_proof_of_committed_step(low);\n            return (true, req_type.COMMITTED_STEP, state);\n        }\n        else {\n            state.middle = ((state.high - state.low) / 2) + state.low;\n            state.deadline = block.number + deadline_duration;\n            delete state.c_current_hash;\n            //emit request_proof_of_middle(middle);\n            return (true, req_type.MIDDLE, state);\n        }\n    }\n\n    function send_committed_step(\n        committed_step_params memory params,\n        MissmatchInstance memory state,\n        address sender\n    ) public pure returns(bool res, MissmatchInstance memory res_state)\n    {\n        uint8 sender_idx;\n        uint8 other_idx;\n        bytes32 sim_store_mt_root;\n        int32 nextPC;\n        \n        {// initial checks\n            if (sender == state.c_address[0]){\n                sender_idx = 0;\n                other_idx = 1;\n            }\n            else if(sender == state.c_address[1]){\n                sender_idx = 1;\n                other_idx = 0;\n            }\n            else {\n                return (false, state);\n            }\n\n            if (state.alg_state != 2){\n                return (false, state);\n            }\n        \n            bytes32 submitted_rc_hash_low = keccak256(abi.encodePacked(params.PC, params.OpCode, params.args, params.store_mt_root));\n            if (state.rc_hash_low != submitted_rc_hash_low){\n                state.winner = state.c_address[other_idx];\n                state.alg_state = 3;\n                return (false, state);\n            }\n        }\n\n        if (params.OpCode == 1){//LOAD\n            if (!verify_arg_value(params.args[1], params.args_values[0], params.args_proof[0], params.store_mt_root)){\n                state.winner = state.c_address[other_idx];\n                state.alg_state = 3;\n                return (false, state);\n            }\n\n            bytes32 next_arg_leaf = keccak256(abi.encodePacked(params.args[1], params.args[0]));\n            sim_store_mt_root = update_merkle(next_arg_leaf, params.args_proof[0].arr, params.args_proof[0].pos);\n            nextPC = params.PC + 1;\n        }\n        else if (params.OpCode == 2 || params.OpCode == 3){//ADD or SUB\n            for (uint8 i = 0; i < 3; i++) {\n                if (!verify_arg_value(params.args[i], params.args_values[i], params.args_proof[i], params.store_mt_root)){\n                    state.winner = state.c_address[other_idx];\n                    state.alg_state = 3;\n                    return (false, state);\n                }\n            }\n\n            {\n                int32 result = params.OpCode == 2 ? params.args_values[0] + params.args_values[1] : params.args_values[0] - params.args_values[1];\n                bytes32 next_arg_leaf = keccak256(abi.encodePacked(params.args[2], result));\n                sim_store_mt_root = update_merkle(next_arg_leaf, params.args_proof[2].arr, params.args_proof[2].pos);\n            }\n            nextPC = params.PC + 1;\n        }\n        else if (params.OpCode == 4){//COPYID\n            if (!verify_arg_value(params.args[0], params.args_values[0], params.args_proof[0], params.store_mt_root) ||\n            !verify_arg_value(params.args[1], params.args_values[1], params.args_proof[1], params.store_mt_root) ||\n            !verify_arg_value(params.args_values[0], params.args_values[2], params.args_proof[2], params.store_mt_root)){\n                state.winner = state.c_address[other_idx];\n                state.alg_state = 3;\n                return (false, state);\n            }\n\n            bytes32 next_arg_leaf = keccak256(abi.encodePacked(params.args[1], params.args_values[2]));\n            sim_store_mt_root = update_merkle(next_arg_leaf, params.args_proof[1].arr, params.args_proof[1].pos);\n            nextPC = params.PC + 1;\n        }\n        else if (params.OpCode == 5){//COPYDI\n            if (!verify_arg_value(params.args[0], params.args_values[0], params.args_proof[0], params.store_mt_root) ||\n            !verify_arg_value(params.args[1], params.args_values[1], params.args_proof[1], params.store_mt_root) ||\n            !verify_arg_value(params.args_values[1], params.args_values[2], params.args_proof[2], params.store_mt_root)){\n                state.winner = state.c_address[other_idx];\n                state.alg_state = 3;\n                return (false, state);\n            }\n\n            bytes32 next_arg_leaf = keccak256(abi.encodePacked(params.args_values[1], params.args_values[2]));\n            sim_store_mt_root = update_merkle(next_arg_leaf, params.args_proof[2].arr, params.args_proof[2].pos);\n            nextPC = params.PC + 1;\n        }\n        else if (params.OpCode == 6){//JNZ\n            if (!verify_arg_value(params.args[0], params.args_values[0], params.args_proof[0], params.store_mt_root)){\n                state.winner = state.c_address[other_idx];\n                state.alg_state = 3;\n                return (false, state);\n            }\n\n            sim_store_mt_root = params.store_mt_root;\n            nextPC = params.args_values[0] > 0 ? params.args[1] : params.PC + 1;\n        }\n\n        bytes32 next_op_leaf =  keccak256(abi.encodePacked(nextPC, params.nextOpCode, params.nextArgs));\n        if (!verify_merkle(proof(state.code_mt_root, next_op_leaf, params.next_op_proof.arr, params.next_op_proof.pos))){\n            state.winner = state.c_address[other_idx];\n            state.alg_state = 3;\n            return (false, state);\n        }\n\n        bytes32 rc_hash_simulated = keccak256(abi.encodePacked(nextPC, params.nextOpCode, params.nextArgs, sim_store_mt_root));\n        if (state.rc_hash_high_c[sender_idx] == rc_hash_simulated){\n            state.winner = state.c_address[sender_idx];\n            state.alg_state = 3;\n            return (true, state);\n        }\n        else{\n            state.winner = state.c_address[other_idx];\n            state.alg_state = 3;\n            return (false, state);\n        }\n\n    }\n\n    function report(MissmatchInstance memory state) public view returns(bool res, MissmatchInstance memory res_state)\n    {\n        if (block.number <= state.deadline || state.alg_state != 1){\n            return (false, state);\n        }\n\n        if (state.c_current_hash[0] != bytes32(0)){\n            state.winner = state.c_address[0];\n        }\n        else if (state.c_current_hash[1] != bytes32(0)){\n            state.winner = state.c_address[1];\n        }\n        else {\n            state.winner = state.c_address[block.number % 2];\n        }\n\n        state.alg_state = 3;\n        return (true, state);\n    }\n\n    function verify_merkle(\n        proof memory mk_proof\n    ) internal pure returns(bool)\n    {\n        bytes32 computedHash = mk_proof.leaf;\n\n        for (uint256 i = 0; i < mk_proof.arr.length; i++) {\n            bytes32 proofElement = mk_proof.arr[i];\n\n            if (mk_proof.pos[i]) {\n            // Hash(current computed hash + current element of the proof)\n            computedHash = keccak256(abi.encode(computedHash, proofElement));\n            } else {\n            // Hash(current element of the proof + current computed hash)\n            computedHash = keccak256(abi.encode(proofElement, computedHash));\n            }\n        }\n\n        // Check if the computed hash (root) is equal to the provided root\n        return computedHash == mk_proof.root;\n    }\n\n    function update_merkle(\n        bytes32 leaf,\n        bytes32[] memory proof_arr,\n        bool[] memory proofPos\n    ) internal pure returns(bytes32)\n    {\n        bytes32 computedHash = leaf;\n\n        for (uint256 i = 0; i < proof_arr.length; i++) {\n            bytes32 proofElement = proof_arr[i];\n\n            if (proofPos[i]) {\n            // Hash(current computed hash + current element of the proof)\n            computedHash = keccak256(abi.encode(computedHash, proofElement));\n            } else {\n            // Hash(current element of the proof + current computed hash)\n            computedHash = keccak256(abi.encode(proofElement, computedHash));\n            }\n        }\n        return computedHash;\n    }\n\n    function verify_arg_value(\n        int32 arg_idx,\n        int32 arg_value,\n        proof memory arg_proof,\n        bytes32 store_mt_root\n    ) internal pure returns(bool){\n        bytes32 arg_leaf = keccak256(abi.encodePacked(arg_idx, arg_value));\n        proof memory new_proof = proof(store_mt_root, arg_leaf, arg_proof.arr, arg_proof.pos);\n        return verify_merkle(new_proof);\n    }\n}",
  "sourcePath": "/Users/onurerenarpaci/Desktop/KUSRP/delegate/contracts/missmatch-multiple.sol",
  "compiler": {
    "name": "solc",
    "version": "0.8.15+commit.e14f2714.Emscripten.clang"
  },
  "schemaVersion": "3.4.8",
  "updatedAt": "2022-08-03T22:28:08.110Z",
  "networkType": "ethereum",
  "devdoc": {
    "kind": "dev",
    "methods": {},
    "version": 1
  },
  "userdoc": {
    "kind": "user",
    "methods": {},
    "version": 1
  }
}