{
  "contractName": "MissmatchLib",
  "abi": [
    {
      "inputs": [
        {
          "components": [
            {
              "internalType": "bytes32",
              "name": "root",
              "type": "bytes32"
            },
            {
              "internalType": "bytes32",
              "name": "leaf",
              "type": "bytes32"
            },
            {
              "internalType": "bytes32[]",
              "name": "arr",
              "type": "bytes32[]"
            },
            {
              "internalType": "bool[]",
              "name": "pos",
              "type": "bool[]"
            }
          ],
          "internalType": "struct proof",
          "name": "rc_proof",
          "type": "tuple"
        },
        {
          "components": [
            {
              "internalType": "uint256",
              "name": "s",
              "type": "uint256"
            },
            {
              "internalType": "bytes32[2]",
              "name": "z",
              "type": "bytes32[2]"
            },
            {
              "internalType": "uint256",
              "name": "low",
              "type": "uint256"
            },
            {
              "internalType": "uint256",
              "name": "high",
              "type": "uint256"
            },
            {
              "internalType": "uint256",
              "name": "middle",
              "type": "uint256"
            },
            {
              "internalType": "uint256",
              "name": "deadline",
              "type": "uint256"
            },
            {
              "internalType": "address[2]",
              "name": "c_address",
              "type": "address[2]"
            },
            {
              "internalType": "uint8",
              "name": "alg_state",
              "type": "uint8"
            },
            {
              "internalType": "address",
              "name": "winner",
              "type": "address"
            },
            {
              "internalType": "bytes32[2]",
              "name": "c_current_hash",
              "type": "bytes32[2]"
            },
            {
              "internalType": "bytes32",
              "name": "rc_hash_low",
              "type": "bytes32"
            },
            {
              "internalType": "bytes32[2]",
              "name": "rc_hash_high_c",
              "type": "bytes32[2]"
            },
            {
              "internalType": "bytes32",
              "name": "code_mt_root",
              "type": "bytes32"
            }
          ],
          "internalType": "struct MissmatchInstance",
          "name": "state",
          "type": "tuple"
        },
        {
          "internalType": "address",
          "name": "sender",
          "type": "address"
        }
      ],
      "name": "send_rc_proof",
      "outputs": [
        {
          "internalType": "bool",
          "name": "res",
          "type": "bool"
        },
        {
          "internalType": "enum req_type",
          "name": "req",
          "type": "req_type"
        },
        {
          "components": [
            {
              "internalType": "uint256",
              "name": "s",
              "type": "uint256"
            },
            {
              "internalType": "bytes32[2]",
              "name": "z",
              "type": "bytes32[2]"
            },
            {
              "internalType": "uint256",
              "name": "low",
              "type": "uint256"
            },
            {
              "internalType": "uint256",
              "name": "high",
              "type": "uint256"
            },
            {
              "internalType": "uint256",
              "name": "middle",
              "type": "uint256"
            },
            {
              "internalType": "uint256",
              "name": "deadline",
              "type": "uint256"
            },
            {
              "internalType": "address[2]",
              "name": "c_address",
              "type": "address[2]"
            },
            {
              "internalType": "uint8",
              "name": "alg_state",
              "type": "uint8"
            },
            {
              "internalType": "address",
              "name": "winner",
              "type": "address"
            },
            {
              "internalType": "bytes32[2]",
              "name": "c_current_hash",
              "type": "bytes32[2]"
            },
            {
              "internalType": "bytes32",
              "name": "rc_hash_low",
              "type": "bytes32"
            },
            {
              "internalType": "bytes32[2]",
              "name": "rc_hash_high_c",
              "type": "bytes32[2]"
            },
            {
              "internalType": "bytes32",
              "name": "code_mt_root",
              "type": "bytes32"
            }
          ],
          "internalType": "struct MissmatchInstance",
          "name": "res_state",
          "type": "tuple"
        }
      ],
      "stateMutability": "view",
      "type": "function",
      "constant": true
    },
    {
      "inputs": [
        {
          "components": [
            {
              "internalType": "int32",
              "name": "PC",
              "type": "int32"
            },
            {
              "internalType": "int32",
              "name": "OpCode",
              "type": "int32"
            },
            {
              "internalType": "int32[]",
              "name": "args",
              "type": "int32[]"
            },
            {
              "internalType": "int32[]",
              "name": "args_values",
              "type": "int32[]"
            },
            {
              "components": [
                {
                  "internalType": "bytes32",
                  "name": "root",
                  "type": "bytes32"
                },
                {
                  "internalType": "bytes32",
                  "name": "leaf",
                  "type": "bytes32"
                },
                {
                  "internalType": "bytes32[]",
                  "name": "arr",
                  "type": "bytes32[]"
                },
                {
                  "internalType": "bool[]",
                  "name": "pos",
                  "type": "bool[]"
                }
              ],
              "internalType": "struct proof[]",
              "name": "args_proof",
              "type": "tuple[]"
            },
            {
              "internalType": "bytes32",
              "name": "store_mt_root",
              "type": "bytes32"
            },
            {
              "internalType": "int32",
              "name": "nextOpCode",
              "type": "int32"
            },
            {
              "internalType": "int32[]",
              "name": "nextArgs",
              "type": "int32[]"
            },
            {
              "components": [
                {
                  "internalType": "bytes32",
                  "name": "root",
                  "type": "bytes32"
                },
                {
                  "internalType": "bytes32",
                  "name": "leaf",
                  "type": "bytes32"
                },
                {
                  "internalType": "bytes32[]",
                  "name": "arr",
                  "type": "bytes32[]"
                },
                {
                  "internalType": "bool[]",
                  "name": "pos",
                  "type": "bool[]"
                }
              ],
              "internalType": "struct proof",
              "name": "next_op_proof",
              "type": "tuple"
            }
          ],
          "internalType": "struct committed_step_params",
          "name": "params",
          "type": "tuple"
        },
        {
          "components": [
            {
              "internalType": "uint256",
              "name": "s",
              "type": "uint256"
            },
            {
              "internalType": "bytes32[2]",
              "name": "z",
              "type": "bytes32[2]"
            },
            {
              "internalType": "uint256",
              "name": "low",
              "type": "uint256"
            },
            {
              "internalType": "uint256",
              "name": "high",
              "type": "uint256"
            },
            {
              "internalType": "uint256",
              "name": "middle",
              "type": "uint256"
            },
            {
              "internalType": "uint256",
              "name": "deadline",
              "type": "uint256"
            },
            {
              "internalType": "address[2]",
              "name": "c_address",
              "type": "address[2]"
            },
            {
              "internalType": "uint8",
              "name": "alg_state",
              "type": "uint8"
            },
            {
              "internalType": "address",
              "name": "winner",
              "type": "address"
            },
            {
              "internalType": "bytes32[2]",
              "name": "c_current_hash",
              "type": "bytes32[2]"
            },
            {
              "internalType": "bytes32",
              "name": "rc_hash_low",
              "type": "bytes32"
            },
            {
              "internalType": "bytes32[2]",
              "name": "rc_hash_high_c",
              "type": "bytes32[2]"
            },
            {
              "internalType": "bytes32",
              "name": "code_mt_root",
              "type": "bytes32"
            }
          ],
          "internalType": "struct MissmatchInstance",
          "name": "state",
          "type": "tuple"
        },
        {
          "internalType": "address",
          "name": "sender",
          "type": "address"
        }
      ],
      "name": "send_committed_step",
      "outputs": [
        {
          "internalType": "bool",
          "name": "res",
          "type": "bool"
        },
        {
          "components": [
            {
              "internalType": "uint256",
              "name": "s",
              "type": "uint256"
            },
            {
              "internalType": "bytes32[2]",
              "name": "z",
              "type": "bytes32[2]"
            },
            {
              "internalType": "uint256",
              "name": "low",
              "type": "uint256"
            },
            {
              "internalType": "uint256",
              "name": "high",
              "type": "uint256"
            },
            {
              "internalType": "uint256",
              "name": "middle",
              "type": "uint256"
            },
            {
              "internalType": "uint256",
              "name": "deadline",
              "type": "uint256"
            },
            {
              "internalType": "address[2]",
              "name": "c_address",
              "type": "address[2]"
            },
            {
              "internalType": "uint8",
              "name": "alg_state",
              "type": "uint8"
            },
            {
              "internalType": "address",
              "name": "winner",
              "type": "address"
            },
            {
              "internalType": "bytes32[2]",
              "name": "c_current_hash",
              "type": "bytes32[2]"
            },
            {
              "internalType": "bytes32",
              "name": "rc_hash_low",
              "type": "bytes32"
            },
            {
              "internalType": "bytes32[2]",
              "name": "rc_hash_high_c",
              "type": "bytes32[2]"
            },
            {
              "internalType": "bytes32",
              "name": "code_mt_root",
              "type": "bytes32"
            }
          ],
          "internalType": "struct MissmatchInstance",
          "name": "res_state",
          "type": "tuple"
        }
      ],
      "stateMutability": "pure",
      "type": "function",
      "constant": true
    },
    {
      "inputs": [
        {
          "components": [
            {
              "internalType": "uint256",
              "name": "s",
              "type": "uint256"
            },
            {
              "internalType": "bytes32[2]",
              "name": "z",
              "type": "bytes32[2]"
            },
            {
              "internalType": "uint256",
              "name": "low",
              "type": "uint256"
            },
            {
              "internalType": "uint256",
              "name": "high",
              "type": "uint256"
            },
            {
              "internalType": "uint256",
              "name": "middle",
              "type": "uint256"
            },
            {
              "internalType": "uint256",
              "name": "deadline",
              "type": "uint256"
            },
            {
              "internalType": "address[2]",
              "name": "c_address",
              "type": "address[2]"
            },
            {
              "internalType": "uint8",
              "name": "alg_state",
              "type": "uint8"
            },
            {
              "internalType": "address",
              "name": "winner",
              "type": "address"
            },
            {
              "internalType": "bytes32[2]",
              "name": "c_current_hash",
              "type": "bytes32[2]"
            },
            {
              "internalType": "bytes32",
              "name": "rc_hash_low",
              "type": "bytes32"
            },
            {
              "internalType": "bytes32[2]",
              "name": "rc_hash_high_c",
              "type": "bytes32[2]"
            },
            {
              "internalType": "bytes32",
              "name": "code_mt_root",
              "type": "bytes32"
            }
          ],
          "internalType": "struct MissmatchInstance",
          "name": "state",
          "type": "tuple"
        }
      ],
      "name": "report",
      "outputs": [
        {
          "internalType": "bool",
          "name": "res",
          "type": "bool"
        },
        {
          "components": [
            {
              "internalType": "uint256",
              "name": "s",
              "type": "uint256"
            },
            {
              "internalType": "bytes32[2]",
              "name": "z",
              "type": "bytes32[2]"
            },
            {
              "internalType": "uint256",
              "name": "low",
              "type": "uint256"
            },
            {
              "internalType": "uint256",
              "name": "high",
              "type": "uint256"
            },
            {
              "internalType": "uint256",
              "name": "middle",
              "type": "uint256"
            },
            {
              "internalType": "uint256",
              "name": "deadline",
              "type": "uint256"
            },
            {
              "internalType": "address[2]",
              "name": "c_address",
              "type": "address[2]"
            },
            {
              "internalType": "uint8",
              "name": "alg_state",
              "type": "uint8"
            },
            {
              "internalType": "address",
              "name": "winner",
              "type": "address"
            },
            {
              "internalType": "bytes32[2]",
              "name": "c_current_hash",
              "type": "bytes32[2]"
            },
            {
              "internalType": "bytes32",
              "name": "rc_hash_low",
              "type": "bytes32"
            },
            {
              "internalType": "bytes32[2]",
              "name": "rc_hash_high_c",
              "type": "bytes32[2]"
            },
            {
              "internalType": "bytes32",
              "name": "code_mt_root",
              "type": "bytes32"
            }
          ],
          "internalType": "struct MissmatchInstance",
          "name": "res_state",
          "type": "tuple"
        }
      ],
      "stateMutability": "view",
      "type": "function",
      "constant": true
    }
  ],
  "bytecode": "0x612c22610053600b82828239805160001a607314610046577f4e487b7100000000000000000000000000000000000000000000000000000000600052600060045260246000fd5b30600052607381538281f3fe730000000000000000000000000000000000000000301460806040526004361061004b5760003560e01c8063542ea2a7146100505780635765b8aa146100815780637d2d65fe146100b3575b600080fd5b61006a60048036038101906100659190611ced565b6100e4565b604051610078929190611fb6565b60405180910390f35b61009b60048036038101906100969190612242565b61029e565b6040516100aa9392919061232a565b60405180910390f35b6100cd60048036038101906100c891906126ab565b610637565b6040516100db929190611fb6565b60405180910390f35b60006100ee6117b8565b8260a0015143111580610109575060018360e0015160ff1614155b1561011a5760008391509150610299565b6000801b8361012001516000600281106101375761013661271c565b5b60200201511461019b578260c001516000600281106101595761015861271c565b5b602002015183610100019073ffffffffffffffffffffffffffffffffffffffff16908173ffffffffffffffffffffffffffffffffffffffff168152505061027e565b6000801b8361012001516001600281106101b8576101b761271c565b5b60200201511461021c578260c001516001600281106101da576101d961271c565b5b602002015183610100019073ffffffffffffffffffffffffffffffffffffffff16908173ffffffffffffffffffffffffffffffffffffffff168152505061027d565b8260c0015160024361022e919061277a565b6002811061023f5761023e61271c565b5b602002015183610100019073ffffffffffffffffffffffffffffffffffffffff16908173ffffffffffffffffffffffffffffffffffffffff16815250505b5b60038360e0019060ff16908160ff1681525050600183915091505b915091565b6000806102a96117b8565b6000808660c001516000600281106102c4576102c361271c565b5b602002015173ffffffffffffffffffffffffffffffffffffffff168673ffffffffffffffffffffffffffffffffffffffff1603610308576000915060019050610377565b8660c001516001600281106103205761031f61271c565b5b602002015173ffffffffffffffffffffffffffffffffffffffff168673ffffffffffffffffffffffffffffffffffffffff1603610364576001915060009050610376565b6000600288945094509450505061062e565b5b60018760e0015160ff1614610398576000600288945094509450505061062e565b6103a18861159a565b61040e578660c001518160ff16600281106103bf576103be61271c565b5b602002015187610100019073ffffffffffffffffffffffffffffffffffffffff16908173ffffffffffffffffffffffffffffffffffffffff16815250506000600288945094509450505061062e565b87602001518761012001518360ff166002811061042e5761042d61271c565b5b6020020181815250506000801b8761012001518260ff16600281106104565761045561271c565b5b602002015103610472576001600288945094509450505061062e565b86610120015160016002811061048b5761048a61271c565b5b60200201518761012001516000600281106104a9576104a861271c565b5b6020020151036104ee5786608001518760400181815250508661012001516000600281106104da576104d961271c565b5b60200201518761014001818152505061057d565b86608001518760600181815250508661012001516000600281106105155761051461271c565b5b60200201518761016001516000600281106105335761053261271c565b5b6020020181815250508661012001516001600281106105555761055461271c565b5b60200201518761016001516001600281106105735761057261271c565b5b6020020181815250505b6001876040015161058e91906127da565b8760600151036105bc5760028760e0019060ff16908160ff168152505060018088945094509450505061062e565b86604001516002886040015189606001516105d79190612830565b6105e19190612864565b6105eb91906127da565b876080018181525050600563ffffffff164361060791906127da565b8760a0018181525050866101200161061d611857565b815250600160008894509450945050505b93509350939050565b60006106416117b8565b6000806000808760c0015160006002811061065f5761065e61271c565b5b602002015173ffffffffffffffffffffffffffffffffffffffff168773ffffffffffffffffffffffffffffffffffffffff16036106a3576000935060019250610710565b8760c001516001600281106106bb576106ba61271c565b5b602002015173ffffffffffffffffffffffffffffffffffffffff168773ffffffffffffffffffffffffffffffffffffffff16036106ff57600193506000925061070f565b6000889550955050505050611592565b5b60028860e0015160ff161461072f576000889550955050505050611592565b600089600001518a602001518b604001518c60a0015160405160200161075894939291906129a4565b60405160208183030381529060405280519060200120905080896101400151146107f7578860c001518460ff16600281106107965761079561271c565b5b602002015189610100019073ffffffffffffffffffffffffffffffffffffffff16908173ffffffffffffffffffffffffffffffffffffffff168152505060038960e0019060ff16908160ff1681525050600089965096505050505050611592565b506001896020015160030b036109c95761087489604001516001815181106108225761082161271c565b5b60200260200101518a606001516000815181106108425761084161271c565b5b60200260200101518b608001516000815181106108625761086161271c565b5b60200260200101518c60a0015161167b565b6108f2578760c001518360ff16600281106108925761089161271c565b5b602002015188610100019073ffffffffffffffffffffffffffffffffffffffff16908173ffffffffffffffffffffffffffffffffffffffff168152505060038860e0019060ff16908160ff16815250506000889550955050505050611592565b6000896040015160018151811061090c5761090b61271c565b5b60200260200101518a6040015160008151811061092c5761092b61271c565b5b60200260200101516040516020016109459291906129ee565b6040516020818303038152906040528051906020012090506109ae818b608001516000815181106109795761097861271c565b5b6020026020010151604001518c6080015160008151811061099d5761099c61271c565b5b6020026020010151606001516116eb565b925060018a600001516109c19190612a1a565b915050611349565b6002896020015160030b14806109e657506003896020015160030b145b15610c665760005b60038160ff161015610aff57610a6d8a604001518260ff1681518110610a1757610a1661271c565b5b60200260200101518b606001518360ff1681518110610a3957610a3861271c565b5b60200260200101518c608001518460ff1681518110610a5b57610a5a61271c565b5b60200260200101518d60a0015161167b565b610aec578860c001518460ff1660028110610a8b57610a8a61271c565b5b602002015189610100019073ffffffffffffffffffffffffffffffffffffffff16908173ffffffffffffffffffffffffffffffffffffffff168152505060038960e0019060ff16908160ff1681525050600089965096505050505050611592565b8080610af790612a92565b9150506109ee565b50600060028a6020015160030b14610b60578960600151600181518110610b2957610b2861271c565b5b60200260200101518a60600151600081518110610b4957610b4861271c565b5b6020026020010151610b5b9190612abb565b610bab565b8960600151600181518110610b7857610b7761271c565b5b60200260200101518a60600151600081518110610b9857610b9761271c565b5b6020026020010151610baa9190612a1a565b5b905060008a60400151600281518110610bc757610bc661271c565b5b602002602001015182604051602001610be19291906129ee565b604051602081830303815290604052805190602001209050610c4a818c60800151600281518110610c1557610c1461271c565b5b6020026020010151604001518d60800151600281518110610c3957610c3861271c565b5b6020026020010151606001516116eb565b9350505060018960000151610c5f9190612a1a565b9050611348565b6004896020015160030b03610f2357610ce28960400151600081518110610c9057610c8f61271c565b5b60200260200101518a60600151600081518110610cb057610caf61271c565b5b60200260200101518b60800151600081518110610cd057610ccf61271c565b5b60200260200101518c60a0015161167b565b1580610d585750610d568960400151600181518110610d0457610d0361271c565b5b60200260200101518a60600151600181518110610d2457610d2361271c565b5b60200260200101518b60800151600181518110610d4457610d4361271c565b5b60200260200101518c60a0015161167b565b155b80610dcd5750610dcb8960600151600081518110610d7957610d7861271c565b5b60200260200101518a60600151600281518110610d9957610d9861271c565b5b60200260200101518b60800151600281518110610db957610db861271c565b5b60200260200101518c60a0015161167b565b155b15610e4c578760c001518360ff1660028110610dec57610deb61271c565b5b602002015188610100019073ffffffffffffffffffffffffffffffffffffffff16908173ffffffffffffffffffffffffffffffffffffffff168152505060038860e0019060ff16908160ff16815250506000889550955050505050611592565b60008960400151600181518110610e6657610e6561271c565b5b60200260200101518a60600151600281518110610e8657610e8561271c565b5b6020026020010151604051602001610e9f9291906129ee565b604051602081830303815290604052805190602001209050610f08818b60800151600181518110610ed357610ed261271c565b5b6020026020010151604001518c60800151600181518110610ef757610ef661271c565b5b6020026020010151606001516116eb565b925060018a60000151610f1b9190612a1a565b915050611347565b6005896020015160030b036111e057610f9f8960400151600081518110610f4d57610f4c61271c565b5b60200260200101518a60600151600081518110610f6d57610f6c61271c565b5b60200260200101518b60800151600081518110610f8d57610f8c61271c565b5b60200260200101518c60a0015161167b565b158061101557506110138960400151600181518110610fc157610fc061271c565b5b60200260200101518a60600151600181518110610fe157610fe061271c565b5b60200260200101518b608001516001815181106110015761100061271c565b5b60200260200101518c60a0015161167b565b155b8061108a575061108889606001516001815181106110365761103561271c565b5b60200260200101518a606001516002815181106110565761105561271c565b5b60200260200101518b608001516002815181106110765761107561271c565b5b60200260200101518c60a0015161167b565b155b15611109578760c001518360ff16600281106110a9576110a861271c565b5b602002015188610100019073ffffffffffffffffffffffffffffffffffffffff16908173ffffffffffffffffffffffffffffffffffffffff168152505060038860e0019060ff16908160ff16815250506000889550955050505050611592565b600089606001516001815181106111235761112261271c565b5b60200260200101518a606001516002815181106111435761114261271c565b5b602002602001015160405160200161115c9291906129ee565b6040516020818303038152906040528051906020012090506111c5818b608001516002815181106111905761118f61271c565b5b6020026020010151604001518c608001516002815181106111b4576111b361271c565b5b6020026020010151606001516116eb565b925060018a600001516111d89190612a1a565b915050611346565b6006896020015160030b036113455761125c896040015160008151811061120a5761120961271c565b5b60200260200101518a6060015160008151811061122a5761122961271c565b5b60200260200101518b6080015160008151811061124a5761124961271c565b5b60200260200101518c60a0015161167b565b6112da578760c001518360ff166002811061127a5761127961271c565b5b602002015188610100019073ffffffffffffffffffffffffffffffffffffffff16908173ffffffffffffffffffffffffffffffffffffffff168152505060038860e0019060ff16908160ff16815250506000889550955050505050611592565b8860a001519150600089606001516000815181106112fb576112fa61271c565b5b602002602001015160030b13611321576001896000015161131c9190612a1a565b611342565b88604001516001815181106113395761133861271c565b5b60200260200101515b90505b5b5b5b5b6000818a60c001518b60e0015160405160200161136893929190612b33565b6040516020818303038152906040528051906020012090506113c060405180608001604052808b610180015181526020018381526020018c61010001516040015181526020018c61010001516060015181525061159a565b61143f578860c001518460ff16600281106113de576113dd61271c565b5b602002015189610100019073ffffffffffffffffffffffffffffffffffffffff16908173ffffffffffffffffffffffffffffffffffffffff168152505060038960e0019060ff16908160ff1681525050600089965096505050505050611592565b6000828b60c001518c60e001518660405160200161146094939291906129a4565b604051602081830303815290604052805190602001209050808a61016001518760ff16600281106114945761149361271c565b5b60200201510361151a578960c001518660ff16600281106114b8576114b761271c565b5b60200201518a610100019073ffffffffffffffffffffffffffffffffffffffff16908173ffffffffffffffffffffffffffffffffffffffff168152505060038a60e0019060ff16908160ff168152505060018a97509750505050505050611592565b8960c001518560ff16600281106115345761153361271c565b5b60200201518a610100019073ffffffffffffffffffffffffffffffffffffffff16908173ffffffffffffffffffffffffffffffffffffffff168152505060038a60e0019060ff16908160ff168152505060008a975097505050505050505b935093915050565b6000808260200151905060005b83604001515181101561166b576000846040015182815181106115cd576115cc61271c565b5b60200260200101519050846060015182815181106115ee576115ed61271c565b5b60200260200101511561162b57828160405160200161160e929190612b7b565b604051602081830303815290604052805190602001209250611657565b808360405160200161163e929190612b7b565b6040516020818303038152906040528051906020012092505b50808061166390612ba4565b9150506115a7565b5082600001518114915050919050565b60008085856040516020016116919291906129ee565b6040516020818303038152906040528051906020012090506000604051806080016040528085815260200183815260200186604001518152602001866060015181525090506116df8161159a565b92505050949350505050565b60008084905060005b84518110156117ac5760008582815181106117125761171161271c565b5b6020026020010151905084828151811061172f5761172e61271c565b5b60200260200101511561176c57828160405160200161174f929190612b7b565b604051602081830303815290604052805190602001209250611798565b808360405160200161177f929190612b7b565b6040516020818303038152906040528051906020012092505b5080806117a490612ba4565b9150506116f4565b50809150509392505050565b604051806101a00160405280600081526020016117d3611857565b8152602001600081526020016000815260200160008152602001600081526020016117fc611879565b8152602001600060ff168152602001600073ffffffffffffffffffffffffffffffffffffffff168152602001611830611857565b815260200160008019168152602001611847611857565b8152602001600080191681525090565b6040518060400160405280600290602082028036833780820191505090505090565b6040518060400160405280600290602082028036833780820191505090505090565b6000604051905090565b600080fd5b600080fd5b600080fd5b6000601f19601f8301169050919050565b7f4e487b7100000000000000000000000000000000000000000000000000000000600052604160045260246000fd5b6118fd826118b4565b810181811067ffffffffffffffff8211171561191c5761191b6118c5565b5b80604052505050565b600061192f61189b565b905061193b82826118f4565b919050565b600080fd5b6000819050919050565b61195881611945565b811461196357600080fd5b50565b6000813590506119758161194f565b92915050565b600080fd5b600067ffffffffffffffff82111561199b5761199a6118c5565b5b602082029050919050565b600080fd5b6000819050919050565b6119be816119ab565b81146119c957600080fd5b50565b6000813590506119db816119b5565b92915050565b60006119f46119ef84611980565b611925565b90508060208402830185811115611a0e57611a0d6119a6565b5b835b81811015611a375780611a2388826119cc565b845260208401935050602081019050611a10565b5050509392505050565b600082601f830112611a5657611a5561197b565b5b6002611a638482856119e1565b91505092915050565b600067ffffffffffffffff821115611a8757611a866118c5565b5b602082029050919050565b600073ffffffffffffffffffffffffffffffffffffffff82169050919050565b6000611abd82611a92565b9050919050565b611acd81611ab2565b8114611ad857600080fd5b50565b600081359050611aea81611ac4565b92915050565b6000611b03611afe84611a6c565b611925565b90508060208402830185811115611b1d57611b1c6119a6565b5b835b81811015611b465780611b328882611adb565b845260208401935050602081019050611b1f565b5050509392505050565b600082601f830112611b6557611b6461197b565b5b6002611b72848285611af0565b91505092915050565b600060ff82169050919050565b611b9181611b7b565b8114611b9c57600080fd5b50565b600081359050611bae81611b88565b92915050565b60006102208284031215611bcb57611bca6118af565b5b611bd66101a0611925565b90506000611be684828501611966565b6000830152506020611bfa84828501611a41565b6020830152506060611c0e84828501611966565b6040830152506080611c2284828501611966565b60608301525060a0611c3684828501611966565b60808301525060c0611c4a84828501611966565b60a08301525060e0611c5e84828501611b50565b60c083015250610120611c7384828501611b9f565b60e083015250610140611c8884828501611adb565b61010083015250610160611c9e84828501611a41565b610120830152506101a0611cb4848285016119cc565b610140830152506101c0611cca84828501611a41565b61016083015250610200611ce0848285016119cc565b6101808301525092915050565b60006102208284031215611d0457611d036118a5565b5b6000611d1284828501611bb4565b91505092915050565b60008115159050919050565b611d3081611d1b565b82525050565b611d3f81611945565b82525050565b600060029050919050565b600081905092915050565b6000819050919050565b611d6e816119ab565b82525050565b6000611d808383611d65565b60208301905092915050565b6000602082019050919050565b611da281611d45565b611dac8184611d50565b9250611db782611d5b565b8060005b83811015611de8578151611dcf8782611d74565b9650611dda83611d8c565b925050600181019050611dbb565b505050505050565b600060029050919050565b600081905092915050565b6000819050919050565b611e1981611ab2565b82525050565b6000611e2b8383611e10565b60208301905092915050565b6000602082019050919050565b611e4d81611df0565b611e578184611dfb565b9250611e6282611e06565b8060005b83811015611e93578151611e7a8782611e1f565b9650611e8583611e37565b925050600181019050611e66565b505050505050565b611ea481611b7b565b82525050565b61022082016000820151611ec16000850182611d36565b506020820151611ed46020850182611d99565b506040820151611ee76060850182611d36565b506060820151611efa6080850182611d36565b506080820151611f0d60a0850182611d36565b5060a0820151611f2060c0850182611d36565b5060c0820151611f3360e0850182611e44565b5060e0820151611f47610120850182611e9b565b50610100820151611f5c610140850182611e10565b50610120820151611f71610160850182611d99565b50610140820151611f866101a0850182611d65565b50610160820151611f9b6101c0850182611d99565b50610180820151611fb0610200850182611d65565b50505050565b600061024082019050611fcc6000830185611d27565b611fd96020830184611eaa565b9392505050565b600067ffffffffffffffff821115611ffb57611ffa6118c5565b5b602082029050602081019050919050565b600061201f61201a84611fe0565b611925565b90508083825260208201905060208402830185811115612042576120416119a6565b5b835b8181101561206b578061205788826119cc565b845260208401935050602081019050612044565b5050509392505050565b600082601f83011261208a5761208961197b565b5b813561209a84826020860161200c565b91505092915050565b600067ffffffffffffffff8211156120be576120bd6118c5565b5b602082029050602081019050919050565b6120d881611d1b565b81146120e357600080fd5b50565b6000813590506120f5816120cf565b92915050565b600061210e612109846120a3565b611925565b90508083825260208201905060208402830185811115612131576121306119a6565b5b835b8181101561215a578061214688826120e6565b845260208401935050602081019050612133565b5050509392505050565b600082601f8301126121795761217861197b565b5b81356121898482602086016120fb565b91505092915050565b6000608082840312156121a8576121a76118af565b5b6121b26080611925565b905060006121c2848285016119cc565b60008301525060206121d6848285016119cc565b602083015250604082013567ffffffffffffffff8111156121fa576121f9611940565b5b61220684828501612075565b604083015250606082013567ffffffffffffffff81111561222a57612229611940565b5b61223684828501612164565b60608301525092915050565b6000806000610260848603121561225c5761225b6118a5565b5b600084013567ffffffffffffffff81111561227a576122796118aa565b5b61228686828701612192565b935050602061229786828701611bb4565b9250506102406122a986828701611adb565b9150509250925092565b7f4e487b7100000000000000000000000000000000000000000000000000000000600052602160045260246000fd5b600381106122f3576122f26122b3565b5b50565b6000819050612304826122e2565b919050565b6000612314826122f6565b9050919050565b61232481612309565b82525050565b6000610260820190506123406000830186611d27565b61234d602083018561231b565b61235a6040830184611eaa565b949350505050565b60008160030b9050919050565b61237881612362565b811461238357600080fd5b50565b6000813590506123958161236f565b92915050565b600067ffffffffffffffff8211156123b6576123b56118c5565b5b602082029050602081019050919050565b60006123da6123d58461239b565b611925565b905080838252602082019050602084028301858111156123fd576123fc6119a6565b5b835b8181101561242657806124128882612386565b8452602084019350506020810190506123ff565b5050509392505050565b600082601f8301126124455761244461197b565b5b81356124558482602086016123c7565b91505092915050565b600067ffffffffffffffff821115612479576124786118c5565b5b602082029050602081019050919050565b600061249d6124988461245e565b611925565b905080838252602082019050602084028301858111156124c0576124bf6119a6565b5b835b8181101561250757803567ffffffffffffffff8111156124e5576124e461197b565b5b8086016124f28982612192565b855260208501945050506020810190506124c2565b5050509392505050565b600082601f8301126125265761252561197b565b5b813561253684826020860161248a565b91505092915050565b60006101208284031215612556576125556118af565b5b612561610120611925565b9050600061257184828501612386565b600083015250602061258584828501612386565b602083015250604082013567ffffffffffffffff8111156125a9576125a8611940565b5b6125b584828501612430565b604083015250606082013567ffffffffffffffff8111156125d9576125d8611940565b5b6125e584828501612430565b606083015250608082013567ffffffffffffffff81111561260957612608611940565b5b61261584828501612511565b60808301525060a0612629848285016119cc565b60a08301525060c061263d84828501612386565b60c08301525060e082013567ffffffffffffffff81111561266157612660611940565b5b61266d84828501612430565b60e08301525061010082013567ffffffffffffffff81111561269257612691611940565b5b61269e84828501612192565b6101008301525092915050565b600080600061026084860312156126c5576126c46118a5565b5b600084013567ffffffffffffffff8111156126e3576126e26118aa565b5b6126ef8682870161253f565b935050602061270086828701611bb4565b92505061024061271286828701611adb565b9150509250925092565b7f4e487b7100000000000000000000000000000000000000000000000000000000600052603260045260246000fd5b7f4e487b7100000000000000000000000000000000000000000000000000000000600052601260045260246000fd5b600061278582611945565b915061279083611945565b9250826127a05761279f61274b565b5b828206905092915050565b7f4e487b7100000000000000000000000000000000000000000000000000000000600052601160045260246000fd5b60006127e582611945565b91506127f083611945565b9250827fffffffffffffffffffffffffffffffffffffffffffffffffffffffffffffffff03821115612825576128246127ab565b5b828201905092915050565b600061283b82611945565b915061284683611945565b925082821015612859576128586127ab565b5b828203905092915050565b600061286f82611945565b915061287a83611945565b92508261288a5761288961274b565b5b828204905092915050565b60008160e01b9050919050565b60006128ad82612895565b9050919050565b6128c56128c082612362565b6128a2565b82525050565b600081519050919050565b600081905092915050565b6000819050602082019050919050565b6128fa81612362565b82525050565b600061290c83836128f1565b60208301905092915050565b6000602082019050919050565b6000612930826128cb565b61293a81856128d6565b9350612945836128e1565b8060005b8381101561297657815161295d8882612900565b975061296883612918565b925050600181019050612949565b5085935050505092915050565b6000819050919050565b61299e612999826119ab565b612983565b82525050565b60006129b082876128b4565b6004820191506129c082866128b4565b6004820191506129d08285612925565b91506129dc828461298d565b60208201915081905095945050505050565b60006129fa82856128b4565b600482019150612a0a82846128b4565b6004820191508190509392505050565b6000612a2582612362565b9150612a3083612362565b925081637fffffff03831360008312151615612a4f57612a4e6127ab565b5b817fffffffffffffffffffffffffffffffffffffffffffffffffffffffff80000000038312600083121615612a8757612a866127ab565b5b828201905092915050565b6000612a9d82611b7b565b915060ff8203612ab057612aaf6127ab565b5b600182019050919050565b6000612ac682612362565b9150612ad183612362565b9250827fffffffffffffffffffffffffffffffffffffffffffffffffffffffff8000000001821260008412151615612b0c57612b0b6127ab565b5b82637fffffff018213600084121615612b2857612b276127ab565b5b828203905092915050565b6000612b3f82866128b4565b600482019150612b4f82856128b4565b600482019150612b5f8284612925565b9150819050949350505050565b612b75816119ab565b82525050565b6000604082019050612b906000830185612b6c565b612b9d6020830184612b6c565b9392505050565b6000612baf82611945565b91507fffffffffffffffffffffffffffffffffffffffffffffffffffffffffffffffff8203612be157612be06127ab565b5b60018201905091905056fea26469706673582212209ac95c691692a6e96d4b18b30d31380f9839117d5c55df5fdca1f1e4d328f7a964736f6c634300080f0033",
  "immutableReferences": {},
  "source": "pragma solidity ^0.8.7;\n\nstruct MissmatchInstance {\n    uint256 s;\n    bytes32[2] z;\n    uint256 low;\n    uint256 high;\n    uint256 middle;\n    uint256 deadline;\n    address[2] c_address;\n    uint8 alg_state; //0 not started, 1 binary search, 2 verify committed step, 3 finished\n    address winner; \n    bytes32[2] c_current_hash;\n    bytes32 rc_hash_low;\n    bytes32[2] rc_hash_high_c;\n    bytes32 code_mt_root;\n}\n\nstruct proof{\n    bytes32 root;\n    bytes32 leaf;\n    bytes32[] arr;\n    bool[] pos;\n}\n\nstruct committed_step_params{\n    int32 PC;\n    int32 OpCode;\n    int32[] args;\n    int32[] args_values;\n    proof[] args_proof;\n    bytes32 store_mt_root;\n    int32 nextOpCode;\n    int32[] nextArgs;\n    proof next_op_proof;    \n}\n\nenum req_type {MIDDLE, COMMITTED_STEP, NONE}\n\ncontract Missmatch {\n    mapping(bytes32 => MissmatchInstance) public state;\n\n    uint32 constant deadline_duration = 5;\n\n    event request_proof_of_middle(bytes32 key, uint256 middle);\n    event request_proof_of_committed_step(bytes32 key, uint256 low);\n\n    function start_committed_bs(\n        uint256 _s,\n        bytes32 _zi,\n        bytes32 _zj,\n        address _ci_address,\n        address _cj_address,\n        bytes32 _code_mt_root\n    ) public returns(bool) {\n        bytes32 key = keccak256(abi.encodePacked(_s, _zi, _zj, _ci_address, _cj_address, _code_mt_root));\n        if (state[key].alg_state != 0) {\n            return false;\n        }\n\n        state[key].c_address[0] = _ci_address;\n        state[key].c_address[1] = _cj_address;\n        state[key].s = _s;\n        state[key].z[0] = _zi;\n        state[key].z[1] = _zj;\n        state[key].low = 0;\n        state[key].high = _s;\n        state[key].middle = _s / 2;\n        state[key].deadline = block.number + deadline_duration;\n        state[key].code_mt_root = _code_mt_root;\n        state[key].alg_state = 1;\n\n        emit request_proof_of_middle(key, state[key].middle);\n        return true;\n    }\n\n    function send_rc_proof(\n        proof memory rc_proof,\n        bytes32 key\n    ) public returns(bool)\n    {\n        bool _res; \n        req_type _req; \n        MissmatchInstance memory _res_state;\n        (_res, _req, _res_state) = MissmatchLib.send_rc_proof(rc_proof, state[key], msg.sender);\n\n        state[key] = _res_state;\n        \n        if (_req == req_type.MIDDLE) {\n            emit request_proof_of_middle(key, state[key].middle);\n        }\n        else if (_req == req_type.COMMITTED_STEP){\n            emit request_proof_of_committed_step(key, state[key].low);\n        }\n\n        return _res;\n    }\n\n    function send_committed_step(\n        int32 PC,\n        int32 OpCode,\n        int32[] memory args,\n        int32[] memory args_values,\n        proof[] memory args_proof,\n        bytes32 store_mt_root,\n        int32 nextOpCode,\n        int32[] memory nextArgs,\n        proof memory next_op_proof,\n        bytes32 key\n    ) public returns(bool)\n    {\n        committed_step_params memory params = committed_step_params(PC, OpCode, args, args_values, args_proof, store_mt_root, nextOpCode, nextArgs, next_op_proof);\n        bool _res; \n        MissmatchInstance memory _res_state;\n        (_res, _res_state) = MissmatchLib.send_committed_step(params, state[key], msg.sender);\n\n        state[key] = _res_state;\n\n        return _res;\n    }\n\n    function report(bytes32 key) public returns(bool){\n        bool _res;\n        MissmatchInstance memory _res_state;\n\n        (_res, _res_state) = MissmatchLib.report(state[key]);\n\n        if(_res){\n            state[key] = _res_state;\n        }\n        \n        return _res;\n    }\n\n    fallback() external payable {\n        int n = 0;\n    }\n\n} \n\nlibrary MissmatchLib {\n\n    uint32 constant deadline_duration = 5;\n\n    function send_rc_proof(\n        proof memory rc_proof,\n        MissmatchInstance memory state,\n        address sender\n    ) public view returns(bool res, req_type req, MissmatchInstance memory res_state)\n    {\n        uint8 sender_idx;\n        uint8 other_idx;\n\n        if (sender == state.c_address[0]){\n            sender_idx = 0;\n            other_idx = 1;\n        }\n        else if(sender == state.c_address[1]){\n            sender_idx = 1;\n            other_idx = 0;\n        }\n        else {\n            return (false, req_type.NONE, state);\n        }\n\n        if (state.alg_state != 1){\n            return (false, req_type.NONE, state);\n        }\n        if (!verify_merkle(rc_proof)){\n            state.winner = state.c_address[other_idx];\n            return (false, req_type.NONE, state);\n        }\n\n        state.c_current_hash[sender_idx] = rc_proof.leaf;\n\n        if (state.c_current_hash[other_idx] == bytes32(0)){\n            return (true, req_type.NONE, state);\n        }\n\n        if(state.c_current_hash[0] == state.c_current_hash[1]){\n            state.low = state.middle;\n            state.rc_hash_low = state.c_current_hash[0];\n        }\n        else {\n            state.high = state.middle;\n            state.rc_hash_high_c[0] = state.c_current_hash[0];\n            state.rc_hash_high_c[1] = state.c_current_hash[1];\n        }\n\n        if(state.high == (state.low + 1)){\n            state.alg_state = 2;\n            //emit request_proof_of_committed_step(low);\n            return (true, req_type.COMMITTED_STEP, state);\n        }\n        else {\n            state.middle = ((state.high - state.low) / 2) + state.low;\n            state.deadline = block.number + deadline_duration;\n            delete state.c_current_hash;\n            //emit request_proof_of_middle(middle);\n            return (true, req_type.MIDDLE, state);\n        }\n    }\n\n    function send_committed_step(\n        committed_step_params memory params,\n        MissmatchInstance memory state,\n        address sender\n    ) public pure returns(bool res, MissmatchInstance memory res_state)\n    {\n        uint8 sender_idx;\n        uint8 other_idx;\n        bytes32 sim_store_mt_root;\n        int32 nextPC;\n        \n        {// initial checks\n            if (sender == state.c_address[0]){\n                sender_idx = 0;\n                other_idx = 1;\n            }\n            else if(sender == state.c_address[1]){\n                sender_idx = 1;\n                other_idx = 0;\n            }\n            else {\n                return (false, state);\n            }\n\n            if (state.alg_state != 2){\n                return (false, state);\n            }\n        \n            bytes32 submitted_rc_hash_low = keccak256(abi.encodePacked(params.PC, params.OpCode, params.args, params.store_mt_root));\n            if (state.rc_hash_low != submitted_rc_hash_low){\n                state.winner = state.c_address[other_idx];\n                state.alg_state = 3;\n                return (false, state);\n            }\n        }\n\n        if (params.OpCode == 1){//LOAD\n            if (!verify_arg_value(params.args[1], params.args_values[0], params.args_proof[0], params.store_mt_root)){\n                state.winner = state.c_address[other_idx];\n                state.alg_state = 3;\n                return (false, state);\n            }\n\n            bytes32 next_arg_leaf = keccak256(abi.encodePacked(params.args[1], params.args[0]));\n            sim_store_mt_root = update_merkle(next_arg_leaf, params.args_proof[0].arr, params.args_proof[0].pos);\n            nextPC = params.PC + 1;\n        }\n        else if (params.OpCode == 2 || params.OpCode == 3){//ADD or SUB\n            for (uint8 i = 0; i < 3; i++) {\n                if (!verify_arg_value(params.args[i], params.args_values[i], params.args_proof[i], params.store_mt_root)){\n                    state.winner = state.c_address[other_idx];\n                    state.alg_state = 3;\n                    return (false, state);\n                }\n            }\n\n            {\n                int32 result = params.OpCode == 2 ? params.args_values[0] + params.args_values[1] : params.args_values[0] - params.args_values[1];\n                bytes32 next_arg_leaf = keccak256(abi.encodePacked(params.args[2], result));\n                sim_store_mt_root = update_merkle(next_arg_leaf, params.args_proof[2].arr, params.args_proof[2].pos);\n            }\n            nextPC = params.PC + 1;\n        }\n        else if (params.OpCode == 4){//COPYID\n            if (!verify_arg_value(params.args[0], params.args_values[0], params.args_proof[0], params.store_mt_root) ||\n            !verify_arg_value(params.args[1], params.args_values[1], params.args_proof[1], params.store_mt_root) ||\n            !verify_arg_value(params.args_values[0], params.args_values[2], params.args_proof[2], params.store_mt_root)){\n                state.winner = state.c_address[other_idx];\n                state.alg_state = 3;\n                return (false, state);\n            }\n\n            bytes32 next_arg_leaf = keccak256(abi.encodePacked(params.args[1], params.args_values[2]));\n            sim_store_mt_root = update_merkle(next_arg_leaf, params.args_proof[1].arr, params.args_proof[1].pos);\n            nextPC = params.PC + 1;\n        }\n        else if (params.OpCode == 5){//COPYDI\n            if (!verify_arg_value(params.args[0], params.args_values[0], params.args_proof[0], params.store_mt_root) ||\n            !verify_arg_value(params.args[1], params.args_values[1], params.args_proof[1], params.store_mt_root) ||\n            !verify_arg_value(params.args_values[1], params.args_values[2], params.args_proof[2], params.store_mt_root)){\n                state.winner = state.c_address[other_idx];\n                state.alg_state = 3;\n                return (false, state);\n            }\n\n            bytes32 next_arg_leaf = keccak256(abi.encodePacked(params.args_values[1], params.args_values[2]));\n            sim_store_mt_root = update_merkle(next_arg_leaf, params.args_proof[2].arr, params.args_proof[2].pos);\n            nextPC = params.PC + 1;\n        }\n        else if (params.OpCode == 6){//JNZ\n            if (!verify_arg_value(params.args[0], params.args_values[0], params.args_proof[0], params.store_mt_root)){\n                state.winner = state.c_address[other_idx];\n                state.alg_state = 3;\n                return (false, state);\n            }\n\n            sim_store_mt_root = params.store_mt_root;\n            nextPC = params.args_values[0] > 0 ? params.args[1] : params.PC + 1;\n        }\n\n        bytes32 next_op_leaf =  keccak256(abi.encodePacked(nextPC, params.nextOpCode, params.nextArgs));\n        if (!verify_merkle(proof(state.code_mt_root, next_op_leaf, params.next_op_proof.arr, params.next_op_proof.pos))){\n            state.winner = state.c_address[other_idx];\n            state.alg_state = 3;\n            return (false, state);\n        }\n\n        bytes32 rc_hash_simulated = keccak256(abi.encodePacked(nextPC, params.nextOpCode, params.nextArgs, sim_store_mt_root));\n        if (state.rc_hash_high_c[sender_idx] == rc_hash_simulated){\n            state.winner = state.c_address[sender_idx];\n            state.alg_state = 3;\n            return (true, state);\n        }\n        else{\n            state.winner = state.c_address[other_idx];\n            state.alg_state = 3;\n            return (false, state);\n        }\n\n    }\n\n    function report(MissmatchInstance memory state) public view returns(bool res, MissmatchInstance memory res_state)\n    {\n        if (block.number <= state.deadline || state.alg_state != 1){\n            return (false, state);\n        }\n\n        if (state.c_current_hash[0] != bytes32(0)){\n            state.winner = state.c_address[0];\n        }\n        else if (state.c_current_hash[1] != bytes32(0)){\n            state.winner = state.c_address[1];\n        }\n        else {\n            state.winner = state.c_address[block.number % 2];\n        }\n\n        state.alg_state = 3;\n        return (true, state);\n    }\n\n    function verify_merkle(\n        proof memory mk_proof\n    ) internal pure returns(bool)\n    {\n        bytes32 computedHash = mk_proof.leaf;\n\n        for (uint256 i = 0; i < mk_proof.arr.length; i++) {\n            bytes32 proofElement = mk_proof.arr[i];\n\n            if (mk_proof.pos[i]) {\n            // Hash(current computed hash + current element of the proof)\n            computedHash = keccak256(abi.encode(computedHash, proofElement));\n            } else {\n            // Hash(current element of the proof + current computed hash)\n            computedHash = keccak256(abi.encode(proofElement, computedHash));\n            }\n        }\n\n        // Check if the computed hash (root) is equal to the provided root\n        return computedHash == mk_proof.root;\n    }\n\n    function update_merkle(\n        bytes32 leaf,\n        bytes32[] memory proof_arr,\n        bool[] memory proofPos\n    ) internal pure returns(bytes32)\n    {\n        bytes32 computedHash = leaf;\n\n        for (uint256 i = 0; i < proof_arr.length; i++) {\n            bytes32 proofElement = proof_arr[i];\n\n            if (proofPos[i]) {\n            // Hash(current computed hash + current element of the proof)\n            computedHash = keccak256(abi.encode(computedHash, proofElement));\n            } else {\n            // Hash(current element of the proof + current computed hash)\n            computedHash = keccak256(abi.encode(proofElement, computedHash));\n            }\n        }\n        return computedHash;\n    }\n\n    function verify_arg_value(\n        int32 arg_idx,\n        int32 arg_value,\n        proof memory arg_proof,\n        bytes32 store_mt_root\n    ) internal pure returns(bool){\n        bytes32 arg_leaf = keccak256(abi.encodePacked(arg_idx, arg_value));\n        proof memory new_proof = proof(store_mt_root, arg_leaf, arg_proof.arr, arg_proof.pos);\n        return verify_merkle(new_proof);\n    }\n}",
  "sourcePath": "/Users/onurerenarpaci/Desktop/KUSRP/delegate/contracts/missmatch-multiple.sol",
  "compiler": {
    "name": "solc",
    "version": "0.8.15+commit.e14f2714.Emscripten.clang"
  },
  "schemaVersion": "3.4.8",
  "updatedAt": "2022-08-03T22:28:08.126Z",
  "networkType": "ethereum",
  "devdoc": {
    "kind": "dev",
    "methods": {},
    "version": 1
  },
  "userdoc": {
    "kind": "user",
    "methods": {},
    "version": 1
  }
}